:100000000C9446000C9450000C9450000C9450003A
:100010000C9450000C9450000C9450000C94500020
:100020000C9450000C9450000C9450000C94500010
:100030000C9450000C9450000C9450000C94500000
:100040000C9450000C9450000C9450000C945000F0
:100050000C9450000C9450000C9450000C945000E0
:100060000C9450000C9450000C9450000C945000D0
:100070000C9450000C9450000C9450000C945000C0
:100080000C9450000C9450000C94500011241FBE8E
:10009000CFEFD0E1DEBFCDBF0E945A000C949B0091
:1000A0000C94000087B3876087BB80E58DB981E041
:1000B0008EB9089587B3876087BB80E58DB981E0ED
:1000C0008EB98FB9779BFECFC09A98B3977098BBC3
:1000D000880F803471F12FEF31EE94E021503040E1
:1000E0009040E1F700C000002FEF31EE94E0215086
:1000F00030409040E1F700C000002FEF31EE94E077
:10010000215030409040E1F700C000002FEF31EE69
:1001100094E0215030409040E1F700C000002FEF04
:1001200031EE94E0215030409040E1F700C00000F3
:0A013000C8CF80E0D0CFF894FFCFD5
:00000001FF
